:0409810041005900D8
:0B192400EF1FAC0670011E4C70F62295
:10124A0012166A12192F75855A12004E1206F912D1
:10125A00120712186A12000612194212195A90003D
:10126A0054E0FFC4540F30E0137F147E0012192497
:10127A0075855A1218529000567405F01214378068
:01128A00C59E
:100985000213000002170000020D0000020F000014
:10099500020B000002150000021100000108000111
:0509A5000900010A0039
:101115000512E5127002051174FFF513F5140508A3
:10112500E508C3940A403BE4F5080516E516700288
:10113500051574FFF517F5180509E509940A402208
:10114500E4F509050CE50C7002050B74FFF50DF5CA
:101155000E050AE50A940A4009E4F50A74FFF50F3D
:02116500F51083
:011167002265
:03004E00020FE9B5
:1009AA00410050004100520041004F000527000855
:0609BA0004020101260009
:1018C4009000517403F09000507405F0900052F0B1
:0518D40090004FF0221E
:10035400900050E0FF14601314601814605114707E
:100364000302040C24046003020480900052EFF0A2
:10037400020480900052E06003B4011D900047E045
:100384007002A3E06003020480900045E07002A3C1
:10039400E06003020480020478900052E0FFB4039A
:1003A40003020478EF64046003020480020478907A
:1003B4000052E06003B4011C900047E07002A3E027
:1003C4006003020480900045E07002A3E060030231
:1003D40004808051900052E0FFB40225C39000488D
:1003E400E0944C900047E094045003020480900091
:1003F40046E0944C900045E094045003020480804D
:1004040051EF64047076806C900052E06003B40194
:100414001C900047E07002A3E07061900045E0701A
:1004240002A3E070579000527402F0804F90005283
:10043400E0FFB4023BC3900048E0944C900047E0D6
:1004440094044038900046E0944C900045E09404B5
:10045400402A900050E0900052F09000477404F05D
:10046400A3744CF09000457404F0A3744CF0800C19
:10047400EFB40308900050E0900052F0900052E076
:10048400FF14602C14605214606514700302053963
:100494002404600302055790004FE06F70030205C7
:1004A40057900052E090004FF09000427402801682
:1004B400900052E0FF90004FE06F7003020557EF89
:1004C400F0900042740FF09000477404F0A374B0ED
:1004D400F0E4900045F0A3F022900052E0FF900079
:1004E4004FE06F606EEFF09000427402F0803B903A
:1004F4000052E0FF90004FE06F6012EFF090004276
:10050400740FF09000457404F0A3744CF09000450F
:10051400E0FEA3E0FFA3E0FCA3E0FDB50735ECB5E6
:100524000631BC0405BD4C02801F9000457404F0E4
:10053400A3744CF022900052E0FF90004FE06F60F3
:1005440012EFF0900042740FF09000457402F0A393
:040554007426F022F7
:1014A800900040E0C39408402DE4900040F00526E9
:1014B800E526C39432401FE4F526900041E0C3942A
:1014C8000540037401F0900041E0FF04F074272FF9
:0614D800F8E6FF1216E326
:0114DE0022EB
:10120700900053E0FFC4540F30E0030214A890008D
:1012170051E014600C1460071460102403702080E0
:1012270002800F9000507403F08014900053E03058
:10123700E0089000507404F08005E4900050F0122C
:031247000354222B
:1009C0004100370041003C0042003D000042003A37
:0B09D0000000420038000041003F0022
:1017E700E4900037F090003CF0A3F0A3F090003AAB
:0E17F700F0A3F0900038F0A3F090003FF02235
:10105F00AF0FEF30E058AF0FEF54FEF50FD3900006
:10106F0039E09400900038E09400402090003EE07A
:10107F0094FF90003DE094FF500CA3E004F0700645
:10108F0090003DE004F0E490003A801FC390003BD5
:10109F00E094FF90003AE094FF500CA3E004F0704E
:0F10AF000690003AE004F0E490003DF0A3F02238
:10085400E4F51CF51BF51AF519900037E0C394056F
:100864005003020980900038E0FEA3E0FFD3941EF9
:10087400EE9400500E90003FE07008900038F0A312
:10088400F0807290003FE0FD7C006F7001EE6065C7
:10089400900038E0FEA3E0FFD39DEE9C5028EF24A7
:1008A40003FFE43EFEC3EF9DEE9C400A900038EC4B
:1008B400F0A3EDF0803F900039E02403F09000387D
:1008C400E03400F0802F90003FE0FF7E002403FD21
:1008D400EE33FCD3900039E09D900038E09C500743
:1008E400EEF0A3EFF0800E900039E024FDF09000CC
:1008F40038E034FFF0E4751CC8F51BF51AF51990BF
:100904000038E0FEA3E0FFE4FCFDAB1CAA1BA91A1F
:10091400A8191201A3E47BC8FAF9F812022E8F1C5D
:100924008E1B8D1A8C19E47FC8FEFDFCAB1CAA1B20
:10093400A91AA819D31202C0400AE4751CC8F51BF1
:10094400F51AF519E4FFFEFDFCAB1CAA1BA91AA8B5
:1009540019C31202C090913D7008E0540FF0C2B365
:100964008008E0540FF0E04410F0AF1CAE1BAD1A49
:0C097400AC1978081202D18FC2851CC19A
:010980002254
:10128B00900038E07002A3E0700690003FE060161B
:10129B00D2B7C2A2E490003CF0900037E0C394FFB9
:1012AB00501DE004F022E4900037F090003CE0C3C6
:1012BB0094FF500BE004F0E0B43204C2B7D2A22288
:10186A0012105FAF0DEF30E00DAF0DEF54FEF50D26
:07187A0012128B1208542228
:10154C00A282E433FE900049E06E6009A282E4338B
:10155C00F0E4A3F02290004AE004F0E0C39F4014B2
:10156C00E4F0900049E0600790004B7401F022E435
:05157C0090004BF0227D
:10158100A2A4E433FE90004CE06E6009A2A4E4330F
:10159100F0E4A3F02290004DE004F0E0C39F40147A
:1015A100E4F090004CE0600790004E7401F022E4FA
:0515B10090004EF02245
:10183900AF17EFC4540F30E00FAF17EF54EFF517A0
:091849007F0A12154C12158122D0
:0300560002183954
:1017A400900053E0131313541F30E004D2818002DD
:1017B400C281900053E01313543F30E003D28522DA
:0317C400C28522B9
:0B192F00C281C2B7C285E4FF0216E3CC
:061942001200560217A47A
:1009DB004100530041005400410055004100560AAC
:10143700900054E0131313541F30E00D90004BE05D
:101447007007900053E030E006900056740AF09061
:101457000054E0131313541F30E00D900056E07052
:0914670007900054E04410F0224B
:10180500AF10EF30E013AF10EF54FEF51090005617
:0A181500E0D394004003E014F02239
:03195A000218056B
:0100120000ED
:0809EB00410058A04100570033
:10169300AF17EFC413540730E01DAF17EF54DFF556
:1016A30017900057E0D39400400DE014F0E070076A
:0816B300900054E04402F02213
:10175A00AF10EFC31330E01DAF10EF54FDF510903A
:10176A000058E0D39400400DE014F0E070079000B8
:06177A0053E054FEF022D2
:061470008B1B8A1C891D84
:10147600E4FFFEEEC39D5029AB1BAA1CA91D8E825C
:101486007583001201546207E4FCEF30E008C313D1
:10149600FF63078C8004EFC313FF0CBC08EC0E80BF
:0114A600D273
:0114A7002222
:100F6500900008E0F519AF19EF5401FF900053E028
:100F750054FE4FF0AF19EF540225E025E0FFE05491
:100F8500F74FF0AF19EF540425E0FF900054E054FB
:100F9500F74FF0AF19EF540825E0FF900053E054E8
:100FA500EF4FF0AF19EF544025E0FFE0547F4FF0CD
:100FB500AF19EF5480C4135407FFE054FB4FF0E51D
:100FC50019C45403900051F090000AE090003FF0DE
:100FD500900009E090005330E705E04402F022E07C
:030FE50054FDF0C8
:010FE80022E6
:100DED00E4F519781A7C00FD7BFF7A007912FE7FFD
:100DFD000112012E90000C74AAF0E4F51A90004B2C
:100E0D00E0FF6007AE1AEE4401F51AEF6009AF1A64
:100E1D00EF54FDF51A8013900054E0540813135449
:100E2D003FFFAE1AEE54FD4FF51A90000DE51AF086
:100E3D00E4F51A90001EE0FCA3E0FDEC5403F51957
:100E4D00421A90000FEDF0900020E0FCA3E0FDECC5
:100E5D007E0054037802C333CE33CED8F9F5194250
:100E6D001A900010EDF090000EE51AF0900030E0B1
:100E7D00FCA3E0FDEC900011F0A3EDF0900032E04A
:100E8D00547F900013F0900034E06007900013E061
:100E9D004480F0E4900014F0A3F07B017A00790C0B
:0A0EAD007D0A121470900016EFF099
:010EB7002218
:1012CB00E4FE900004E0FFC413540730E0319000BB
:1012DB0004E054DFF0900007E0B4AA237B017A000E
:1012EB0079077D04121470AE0790000BE0B5060F62
:0F12FB00120F6590005874A0F09000577402F025
:01130A0022C0
:1010BE0090004BE06021900054E0131313541F3046
:1010CE00E015AF10EF1313543F30E00BE04402F085
:1010DE00AF10EF54FBF510900054E0FFC31330E057
:1010EE0025900054E054FDF0120DED900004E054F4
:1010FE00F7F0E054FBF0E4900005F0900004E044BB
:07110E0002F0E04401F022B1
:0C00060012169312175A1212CB0210BEF1
:1009F30049002A000000000000000000410035000B
:0F0A0300410033004100360141003400012F0053
:0A17C700D2B27F037E007D007C009B
:1017D1008F258E248D238C22782274FF1202F9EC3E
:0617E1004D4E4F70F32293
:081387008B1E8A1F89208D21B5
:10138F007FFFE4FEEEC395215026AB1EAA1FA920B6
:10139F008E8275830012015462077D08EF30E707D4
:1013AF0025E06431FF8004EF25E0FFDDEF0E80D4F0
:0213BF007E00AE
:0113C1002209
:10181F00E490002AF0A3F0A3F0A3F0A3F0A3F0A3A9
:0A182F00F0A3F0A3F0900035F022C2
:10161300909103E054FBF0438E04E054FDF0438EBD
:1016230002D2B1D2B27F061217CBC2B11217C9C20E
:0C163300B27F037E007D007C000217D116
:10001600909103E054FDF0438E02C2B21217C9C29A
:10002600B11217C91217C7D2B17F037E007D007CBB
:04003600000217D1DC
:1015B600C2B2909103E054FDF0438E02C2B17F06A1
:1015C6001217CBD2B27F061217CBC2B2D2B1538E4C
:1015D600FDE04402F07F037E007D007C000217D10F
:10173300C2B2909103E054FDF0438E02D2B17F0612
:101743001217CBD2B27F061217CBC2B27F037E0031
:071753007D007C000217D1AC
:0216BB00AB077B
:1016BD00E4FAC2B21217C9EB30E704D2B18002C20C
:1016CD00B11217C9D2B27F061217CBC2B2EB25E009
:0516DD00FB0ABA08DF62
:0116E20022E5
:1013C2001216BBD2B1538EFD909103E04402F07F1E
:1013D200061217CB1217C730B10DE054FDF0438E41
:1013E200021200167F01221217C9C2B2909103E0C5
:0B13F20054FDF0438E02D2B17F0022B8
:0214DF00A9075B
:1014E100E4FB538EFD909103E04402F0E4FAC2B2B2
:1014F1007F061217CB1217C7EB25E0FB30B1010BAA
:101501001217C90ABA08E7E97005121733800312E6
:0415110015B6AF0359
:0115150022B3
:101780001216137F881213C2EF70187F211213C232
:10179000EF70107F301213C2EF7008120016E49041
:0417A0000033F02200
:10189800909103E054FBF0438E04E054FDF0438E36
:0618A80002D2B1D2B2220F
:0611BA008B1E8A1F892034
:1011C0001216137F891213C2EF703BE4F5217F01E1
:1011D0001214DFAB1EAA1FA920852182758300EFA0
:1011E0001201810521E521C3940540E2E4FF1214B8
:1011F000DFAB1EAA1FA920900005EF12018112008B
:0612000016E4900033F03B
:0112060022C5
:1006F900E4F519F51DF51CF51BF51AF9AF0DEF1306
:1007090013543F20E003020853AF0DEF54FBF50DDE
:10071900052FE52FC394035003020853E4F52F90E6
:100729000033E0C394FF5003E004F0900033E0FF8E
:10073900D3940A5010900053E0FEC4540F30E00DDA
:10074900EF940340089000347401F08005E49000B0
:1007590034F0900036E06009121780E4900036F01A
:10076900229000367401F0E4F9742A29F582E43400
:1007790000F583E4F009B906F07B017A00792A12C1
:1007890011BA7B017A00792A7D021213878F199099
:10079900002CE0B5194890002AE0FFE48F1DF51CF4
:1007A900F51BF51AAF1DAE1CAD1BAC1A7808120269
:1007B900E48F1D8E1C8D1B8C1AA3E0FFE4FCFDFE4B
:1007C900E51D2FF51DEE351CF51CED351BF51BEC54
:1007D900351AF51A900030E51CF0A3E51DF07B01F0
:1007E9007A00792D7D021213878F1990002FE06509
:1007F90019705790002DE0FFE48F1DF51CF51BF5CE
:100809001AAF1DAE1CAD1BAC1A78081202E48F1D7D
:100819008E1C8D1B8C1AA3E0FFEF451DF51DE51CF1
:10082900F51CE51BF51BE51AF51AE47F64FEFDFCD2
:10083900AB1DAA1CA91BA81A1201A3E47BFF7AFF0E
:0A084900F9F812022E900032EFF0D1
:010853002282
:0E18FC00900054E054EFF09000567405F02276
:0E190A00900054E054EFF09000567405F02267
:030A1200013000B0
:1013FD00A2A4B392A4900004E020E00512163F8051
:10140D0003120A830530E530C39408401CE4F5301F
:10141D00900000E0D39400400DE014F0E0700790D0
:0A142D000000E04402F0120B7922E7
:100A1500022C0A06012E004100230042002400009A
:100A250041001C0041001D00440018000000004268
:100A35000028000042002600004100220044001E5C
:040A450000000000AD
:06194800EF44C0F5E122AE
:020558008B1BFB
:10055A00900023E060030206F890001CE004F0E03B
:10056A00C39D50030206F8E490001CF0AFE5EFAD1E
:10057A00E4F51DEDF51E43E140A3E004F0E0FFC3FE
:10058A00951B5004E4F52E22E51E451D7010052E1C
:10059A00E52EC39405500A90001DE014F022E4F5FC
:1005AA002EEFB51B059000288016E51B2401FFE4F9
:1005BA0033FE90001DE0B5070FE4B5060B90002648
:1005CA00E51DF0A3E51EF022900028E0FEA3E0FF5F
:1005DA00C3951EEE951D50148E1F8F20900028E59E
:1005EA001DF0A3E51EF0851F1D85201E900026E044
:1005FA00FEA3E0FFD3951EEE951D40148E1F8F209B
:10060A00900026E51DF0A3E51EF0851F1D85201E1E
:10061A00900018E0F8A3E0F9A3E0FAA3E0FBE4FCF9
:10062A00FDEB251EFFEA351DFEED39FDEC38FC9089
:10063A00001812031790001DE0C3951C5003020610
:10064A00F8E490001DF0900018E0FCA3E0FDA3E0A0
:10065A00FEA3E0FFC006C007900028E0FEA3E0FB6F
:10066A00AA06D007D006C3EF9BFFEE9AFEED9400D0
:10067A00FDEC9400FC900018120317900018E0FC9F
:10068A00A3E0FDA3E0FEA3E0FFC006C0079000269A
:10069A00E0FEA3E0FBAA06D007D006C3EF9BFFEE5D
:1006AA009AFEED9400FDEC9400FC900018120317DA
:1006BA00C3E51C951BFFE49400CF24FDCF34FFABA8
:1006CA0007FAE4F9F8900018E0FCA3E0FDA3E0FEC5
:1006DA00A3E0FF12022E900024EEF0A3EFF09000A8
:0E06EA0018120323000000009000237401F09A
:0106F80022DF
:100FE900AF17EF131313541F30E06AAF17EF54F71D
:100FF900F517900023E0604AA3E0FEA3E07802CE53
:10100900C313CE13D8F9FF900022E025E0241EF582
:1010190082E43400F583EEF0A3EFF0900022E004BF
:10102900F0E0C394024002E4F0900022E0242CF89E
:10103900E6FF12194843E140E490001CF0900023B8
:10104900F022900022E0242CF8E6FF751C147B03A3
:061059007D011205582282
:08193A00080C04060203010978
:1016E300EF30E004D2958002C295EF30E104D29648
:1016F3008002C296EF30E204D2978002C297EF30A5
:08170300E303D28022C2802220
:100B7900C3900044E094FF900043E094FF500CA31D
:100B8900E004F07006900043E004F0900040E004B7
:100B9900F0900045E0FEA3E0FFA3E0B5060FA3E057
:100BA900B5070AE4900043F0A3F0020C4BC3900090
:100BB90044E094F4900043E094015012900041E025
:100BC90090193A93FF1216E3E4900040F022900046
:100BD90042E0FF900040E0C39F406BE4900040F08A
:100BE900900047E0FEA3E0FF900045E0FCA3E0FD94
:100BF900D39FEC9E4021900041E070057407F0807E
:100C090006900041E014F0900048E004F0702B9049
:100C19000047E004F08023C3ED9FEC9E501C900038
:100C290041E004F0E0C394084002E4F0900048E099
:100C390024FFF0900047E034FFF0900041E0901964
:070C49003A93FF1216E322AB
:100A49004B000C0000000000000000000000450001
:100A590007000000000041000400410005004100BA
:100A69000600410017004100030041000200410057
:060A790001004100000035
:100A8300900005E004F0900004E0131313541F30AA
:100A9300E06C9000007405F0900006E0240CF582F1
:100AA300E43400F583E0FF900017E0FEEF5E600B97
:100AB300900005E0C3940F40148009900005E0C343
:100AC300940A4009E4F0EE25E0900017F090001737
:100AD300E06003020B6604F0900006E004F0C394A8
:100AE3000B5003020B66E4900005F0A3F0900004A2
:100AF300E04404F0E054F7F0E054FDF0806590002A
:100B030004E0C31330E0279000007406F090000562
:100B1300E0C39415404DE4F090001704F0900004F6
:100B2300E054FDF0E04408F0E054FBF08035900021
:100B330004E01313543F30E0179000007405F09065
:100B43000005E0C3940A401B900004E054FD8006B6
:100B5300900004E04402F0E054F7F0E054FBF0E0CE
:100B630054FEF0900000E0FF900005E0C39F5003A7
:060B7300C29322D293227E
:100C5000900001E0FFC39411401EEFD39417501889
:100C6000900004E04410F09000037401F0E4900060
:100C700002F0E02407020D16900004E0C4540F2097
:100C8000E003020D1F900002E0FDC39405400280C6
:100C900059900001E0FFC3940D401FEFD394115011
:100CA0001974072DF582E43400F583C083C082E017
:100CB000FF900003E0FEEF4E8029900001E0FFC3AB
:100CC00094084026EFD3940C5020A3E02407F5822B
:100CD000E43400F583C083C082E0FF900003E0F4B9
:100CE000FEEF5ED082D083F08005900004801F90DC
:100CF0000003E025E0F0702704F0900002E004F02B
:100D0000E0FDC39405400C900004E04420F0E05462
:100D1000EFF02274072DF582E43400F583E4F0222D
:10163F00900001E004F020941A900004E0FFC4131E
:10164F0013540330E014E054BFF0120C50E4900038
:0B165F0001F022900004E04440F02263
:04003E007584132290
:0400460075F8012226
:0C191800EF4E6007EF1F70F81E80F522F4
:101516009090F07408F07F887E131219189090202E
:1015260074A5F0A3E0F5995399F0439901E599F074
:10153600909020745AF074A5F09090277418F0904B
:061546009020745AF0220F
:100EB800E4F58690910804F090911004F090911850
:100EC800E4F0909150F09091207404F0758B239089
:100ED800910074DCF0909131E054F0F0E04409F0B6
:100EE800E4F580909109F0909111F09091197408AF
:100EF800F0909152E4F0A3F0909121F0758CE89075
:100F080091017416F0759008909136E054F0F0E075
:100F18004409F090910A7401F0909112E4F09091D4
:100F28001A7402F0758D0490910274FBF09091226E
:100F3800E4F0F5A090910BF0909113F090911B7450
:100F480006F09091567440F0A3E4F0909123740653
:0D0F5800F0758E8E909103E4F075B00622C6
:10188100E4F5A27C038CA775A6E7F5A4F5A543A210
:0618910080439D01D2EA34
:01189700222E
:0F18ED00E4F5EFF5E675E22375E3CF75E1CA2266
:1018AE00C288909184E4F09091827402F0909180BD
:0618BE007404F0D2E822E0
:1018D900C289909185E4F09091837410F090918180
:0418E900F0D2E9222E
:1015E600E4F519F51A43BC0443BC0153BCF753BCDC
:1015F600FDF5BF75BB15F5AAF5ABF5AD75ACC7F531
:0C160600A9F5BDF5BEF5C1F5C243A980F1
:0116120022B5
:10185200909026E4F07584300000758750758701FA
:081862007587A0000002003EA2
:10166A00C2EF121516120EB81218811218ED1215C1
:10167A00E61218AE1218D912003E1200461218C409
:09168A001217E712181FD2EF221B
:030A7F0001310042
:0300030002130BDA
:10130B00C0E0C0F0C083C082C0D075D000C000C0A8
:10131B0001C002C003C004C005C006C00775980019
:10132B001218FCD007D006D005D004D003D002D0C1
:0E133B0001D000D0D0D082D083D0F0D0E032EC
:030013000213498C
:10134900C0E0C0F0C083C082C0D075D000C000C06A
:1013590001C002C003C004C005C006C00775D8009B
:1013690012190AD007D006D005D004D003D002D074
:0E13790001D000D0D0D082D083D0F0D0E032AE
:03003B0002116847
:10116800C0E0C0F0C083C082C0D075D000C000C04D
:0D11780001C002C003C004C005C006C007CE
:1011850030A814C2A81213FD0531E531C3940840F7
:0A1195000675310012111575A8004F
:10119F00D007D006D005D004D003D002D001D000A4
:0B11AF00D0D0D082D083D0F0D0E0324E
:0300430002170B96
:09170B00C0E0C0D075D000C00799
:1017140030B804AFD6C2B830BA04AFFDC2BA30B9DB
:0817240002C2BB30BB02C2BBD4
:07172C00D007D0D0D0E0325D
:03004B0002194E49
:06194E0030C102C2C132EB
:0300530002003A6E
:01003A003293
:03005B0002195433
:0619540030C202C2C232E3
:03000000020D20CE
:100D200075841290902074A5F09090217403F0784F
:100D30007FE4F6D8FD75813190908074A5F09080A5
:100D400020740093909082F07430909083F0758AB4
:100D5000A0908027740093F58A908026740093F504
:0D0D600089438A5090908074A5F0020DA880
:100D6D0002124AE493A3F8E493A34003F68001F240
:100D7D0008DFF48029E493A3F85407240CC8C33387
:100D8D00C4540F4420C8834004F456800146F6DF56
:100D9D00E4800B0102040810204080900981E47E5C
:100DAD00019360BCA3FF543F30E509541FFEE4934B
:100DBD00A360010ECF54C025E060A840B8E493A312
:100DCD00FAE493A3F8E493A3C8C582C8CAC583CA3D
:100DDD00F0A3C8C582C8CAC583CADFE9DEE780BEF5
:010A82000073
:10005E00E709F608DFFA8046E709F208DFFA803E84
:10006E0088828C83E709F0A3DFFA8032E309F60871
:10007E00DFFA8078E309F208DFFA807088828C83D9
:10008E00E309F0A3DFFA806489828A83E0A3F6088D
:10009E00DFFA805889828A83E0A3F208DFFA804C67
:1000AE0080D280FA80C680D4806980F2803380103E
:1000BE0080A680EA809A80A880DA80E280CA8033A7
:1000CE0089828A83ECFAE493A3C8C582C8CCC5831F
:1000DE00CCF0A3C8C582C8CCC583CCDFE9DEE780EF
:1000EE000D89828A83E493A3F608DFF9ECFAA9F06E
:1000FE00EDFB2289828A83ECFAE0A3C8C582C8CCC4
:10010E00C583CCF0A3C8C582C8CCC583CCDFEADEDC
:10011E00E880DB89828A83E493A3F208DFF980CC3E
:10012E0088F0EF60010E4E60C388F0ED2402B40437
:10013E000050B9F582EB2402B4040050AF232345DE
:06014E0082239000AE7355
:10015400BB010CE58229F582E5833AF583E0225060
:1001640006E92582F8E622BBFE06E92582F8E222AA
:0D017400E58229F582E5833AF583E49322C4
:10018100F8BB010DE58229F582E5833AF583E8F0B4
:10019100225006E92582C8F622BBFE05E92582C860
:0201A100F22248
:1001A300E88FF0A4CC8BF0A42CFCE98EF0A42CFCFB
:1001B3008AF0EDA42CFCEA8EF0A4CDA8F08BF0A479
:1001C3002DCC3825F0FDE98FF0A42CCD35F0FCEBD8
:1001D3008EF0A4FEA9F0EB8FF0A4CFC5F02ECD399D
:0F01E300FEE43CFCEAA42DCE35F0FDE43CFC220A
:1001F20075F008758200EF2FFFEE33FECD33CDCCC4
:1002020033CCC58233C5829BED9AEC99E582984046
:100212000CF582EE9BFEED9AFDEC99FC0FD5F0D623
:10022200E4CEFBE4CDFAE4CCF9A88222B800C1B94D
:100232000059BA002DEC8BF084CFCECDFCE5F0CB8B
:10024200F97818EF2FFFEE33FEED33FDEC33FCEBC4
:1002520033FB10D703994004EB99FB0FD8E5E4F97F
:10026200FA227818EF2FFFEE33FEED33FDEC33FC6C
:10027200C933C910D7059BE99A4007EC9BFCE99A60
:10028200F90FD8E0E4C9FAE4CCFB2275F010EF2FA5
:10029200FFEE33FEED33FDCC33CCC833C810D707A5
:1002A2009BEC9AE899400AED9BFDEC9AFCE899F8E0
:0E02B2000FD5F0DAE4CDFBE4CCFAE4C8F92273
:1002C000EB9FF5F0EA9E42F0E99D42F0E89C45F094
:0102D000220B
:1002D100E8600FECC313FCED13FDEE13FEEF13FF0B
:0302E100D8F1222F
:1002E400E8600FEFC333FFEE33FEED33FDEC33FC78
:0302F400D8F1221C
:1002F7007401FF3395E0FEFDFC080808E6CF2FF6F2
:1003070018E6CE3EF618E6CD3DF618E6CC3CF622CA
:0C031700ECF0A3EDF0A3EEF0A3EFF02259
:10032300A8828583F0D083D08212033A12033A1253
:10033300033A12033AE473E493A3C583C5F0C58378
:10034300C8C582C8F0A3C583C5F0C583C8C582C824
:010353002287
:00000001FF
